:02000000A62F29
:1000060083160313981809280000032883124B0847
:040016009900080045
:10001A005B3083120313A0005C30A0005D30A000A7
:10002A005E30A0005F30A0006030A0006130A00008
:10003A006230A0006330A000A0010130A0000230AD
:10004A00A0000330A0000430A0000530A000063054
:10005A00A0000730A0000830A0000930A0000A3034
:10006A00A0000B30A0000C30A0000D30A0000E3014
:10007A00A0000F30A0001030A0001130A0001230F4
:10008A00A0001330A0001430A0001530A0001630D4
:10009A00A0001730A0001830A0001930A0001A30B4
:1000AA00A0001B30A0001C30A0001D30A0001E3094
:1000BA00A0001F30A0002030A0002130A000223074
:1000CA00A0002330A0002430A0002530A000263054
:1000DA00A0002730A0002830A0002930A0002A3034
:1000EA00A0002B30A0002C30A0002D30A0002E3014
:1000FA00A0002F30A0003030A0003130A0003230F4
:10010A00A0003330A0003430A0003530A0003630D3
:10011A00A0003730A0003830A0003930A0003A30B3
:10012A00A0003B30A0003C30A0003D30A0003E3093
:10013A00A0003F30A0004030A0004130A000423073
:10014A00A0004330A0004430A0004530A000463053
:10015A00A0004730A0004830A0004930A0004A3033
:10016A00A0004B30A0004C30A0004D30A0004E3013
:10017A00A0004F30A0005030A0005130A0005230F3
:10018A00A0005330A0005430A0005530A0005630D3
:10019A00A0005730A0005830A0005930A0005A30B3
:1001AA00A0005B30A0005C30A0005D30A0005E3093
:1001BA00A0005F30A0006030A0006130A000623073
:1001CA00A0006330A000A0010130A0000230A0000E
:1001DA000330A0000430A0000530A0000630A000C3
:1001EA000730A0000830A0000930A0000A30A000A3
:1001FA000B30A0000C30A0000D30A0000E30A00083
:10020A000F30A0001030A0001130A0001230A00062
:10021A001330A0001430A0001530A0001630A00042
:10022A001730A0001830A0001930A0001A30A00022
:10023A001B30A0001C30A0001D30A0001E30A00002
:10024A001F30A0002030A0002130A0002230A000E2
:10025A002330A0002430A0002530A0002630A000C2
:10026A002730A0002830A0002930A0002A30A000A2
:10027A002B30A0002C30A0002D30A0002E30A00082
:10028A002F30A0003030A0003130A0003230A00062
:10029A003330A0003430A0003530A0003630A00042
:1002AA003730A0003830A0003930A0003A30A00022
:1002BA003B30A0003C30A0003D30A0003E30A00002
:1002CA003F30A0004030A0004130A0004230A000E2
:1002DA004330A0004430A0004530A0004630A000C2
:1002EA004730A0004830A0004930A0004A30A000A2
:1002FA004B30A0004C30A0004D30A0004E30A00082
:10030A004F30A0005030A0005130A0005230A00061
:10031A005330A0005430A0005530A0005630A00041
:10032A005730A0005830A0005930A0005A30A00021
:10033A005B30A0005C30A0005D30A0005E30A00001
:10034A005F30A0006030A0006130A0006230A000E1
:10035A006330A000A0010130A0000230A0000330E9
:10036A00A0000430A0000530A0000630A00007302D
:10037A00A0000830A0000930A0000A30A0000B300D
:10038A00A0000C30A0000D30A0000E30A0000F30ED
:10039A00A0001030A0001130A0001230A0001330CD
:1003AA00A0001430A0001530A0001630A0001730AD
:1003BA00A0001830A0001930A0001A30A0001B308D
:1003CA00A0001C30A0001D30A0001E30A0001F306D
:1003DA00A0002030A0002130A0002230A00023304D
:1003EA00A0002430A0002530A0002630A00027302D
:1003FA00A0002830A0002930A0002A30A0002B300D
:10040A00A0002C30A0002D30A0002E30A0002F30EC
:10041A00A0003030A0003130A0003230A0003330CC
:10042A00A0003430A0003530A0003630A0003730AC
:10043A00A0003830A0003930A0003A30A0003B308C
:10044A00A0003C30A0003D30A0003E30A0003F306C
:10045A00A0004030A0004130A0004230A00043304C
:10046A00A0004430A0004530A0004630A00047302C
:10047A00A0004830A0004930A0004A30A0004B300C
:10048A00A0004C30A0004D30A0004E30A0004F30EC
:10049A00A0005030A0005130A0005230A0005330CC
:1004AA00A0005430A0005530A0005630A0005730AC
:1004BA00A0005830A0005930A0005A30A0005B308C
:1004CA00A0005C30A0005D30A0005E30A0005F306C
:1004DA00A0006030A0006130A0006230A00063304C
:1004EA00A000A0010130A0000230A0000330A0004B
:1004FA000430A0000530A0000630A0000730A0009C
:10050A000830A0000930A0000A30A0000B30A0007B
:10051A000C30A0000D30A0000E30A0000F30A0005B
:10052A001030A0001130A0001230A0001330A0003B
:10053A001430A0001530A0001630A0001730A0001B
:10054A001830A0001930A0001A30A0001B30A000FB
:10055A001C30A0001D30A0001E30A0001F30A000DB
:10056A002030A0002130A0002230A0002330A000BB
:10057A002430A0002530A0002630A0002730A0009B
:10058A002830A0002930A0002A30A0002B30A0007B
:10059A002C30A0002D30A0002E30A0002F30A0005B
:1005AA003030A0003130A0003230A0003330A0003B
:1005BA003430A0003530A0003630A0003730A0001B
:1005CA003830A0003930A0003A30A0003B30A000FB
:1005DA003C30A0003D30A0003E30A0003F30A000DB
:1005EA004030A0004130A0004230A0004330A000BB
:1005FA004430A0004530A0004630A0004730A0009B
:10060A004830A0004930A0004A30A0004B30A0007A
:10061A004C30A0004D30A0004E30A0004F30A0005A
:10062A005030A0005130A0005230A0005330A0003A
:10063A005430A0005530A0005630A0005730A0001A
:10064A005830A0005930A0005A30A0005B30A000FA
:10065A005C30A0005D30A0005E30A0005F30A000DA
:10066A006030A0006130A0006230A0006330A000BA
:10067A00A0010130A0000230A0000330A000043025
:10068A00A0000530A0000630A0000730A000083006
:10069A00A0000930A0000A30A0000B30A0000C30E6
:1006AA00A0000D30A0000E30A0000F30A0001030C6
:1006BA00A0001130A0001230A0001330A0001430A6
:1006CA00A0001530A0001630A0001730A000183086
:1006DA00A0001930A0001A30A0001B30A0001C3066
:1006EA00A0001D30A0001E30A0001F30A000203046
:1006FA00A0002130A0002230A0002330A000243026
:10070A00A0002530A0002630A0002730A000283005
:10071A00A0002930A0002A30A0002B30A0002C30E5
:10072A00A0002D30A0002E30A0002F30A0003030C5
:10073A00A0003130A0003230A0003330A0003430A5
:10074A00A0003530A0003630A0003730A000383085
:10075A00A0003930A0003A30A0003B30A0003C3065
:10076A00A0003D30A0003E30A0003F30A000403045
:10077A00A0004130A0004230A0004330A000443025
:10078A00A0004530A0004630A0004730A000483005
:10079A00A0004930A0004A30A0004B30A0004C30E5
:1007AA00A0004D30A0004E30A0004F30A0005030C5
:1007BA00A0005130A0005230A0005330A0005430A5
:1007CA00A0005530A0005630A0005730A000583085
:1007DA00A0005930A0005A30A0005B30A0005C3065
:1007EA00A0005D30A0005E30A0005F30A000603045
:1007FA00A0006130A0006230A0006330A000A00118
:10080A000130A0000230A0000330A0000430A00094
:10081A000530A0000630A0000730A0000830A00074
:10082A000930A0000A30A0000B30A0000C30A00054
:10083A000D30A0000E30A0000F30A0001030A00034
:10084A001130A0001230A0001330A0001430A00014
:10085A001530A0001630A0001730A0001830A000F4
:10086A001930A0001A30A0001B30A0001C30A000D4
:10087A001D30A0001E30A0001F30A0002030A000B4
:10088A002130A0002230A0002330A0002430A00094
:10089A002530A0002630A0002730A0002830A00074
:1008AA002930A0002A30A0002B30A0002C30A00054
:1008BA002D30A0002E30A0002F30A0003030A00034
:1008CA003130A0003230A0003330A0003430A00014
:1008DA003530A0003630A0003730A0003830A000F4
:1008EA003930A0003A30A0003B30A0003C30A000D4
:1008FA003D30A0003E30A0003F30A0004030A000B4
:10090A004130A0004230A0004330A0004430A00093
:10091A004530A0004630A0004730A0004830A00073
:10092A004930A0004A30A0004B30A0004C30A00053
:10093A004D30A0004E30A0004F30A0005030A00033
:10094A005130A0005230A0005330A0005430A00013
:10095A005530A0005630A0005730A0005830A000F3
:10096A005930A0005A30A0005B30A0005C30A000D3
:10097A005D30A0005E30A0005F30A0006030A000B3
:10098A006130A0006230A0006330A000A0010130F5
:10099A00A0000230A0000330A0000430A0000530FF
:1009AA00A0000630A0000730A0000830A0000930DF
:1009BA00A0000A30A0000B30A0000C30A0000D30BF
:1009CA00A0000E30A0000F30A0001030A00011309F
:1009DA00A0001230A0001330A0001430A00015307F
:1009EA00A0001630A0001730A0001830A00019305F
:1009FA00A0001A30A0001B30A0001C30A0001D303F
:100A0A00A0001E30A0001F30A0002030A00021301E
:100A1A00A0002230A0002330A0002430A0002530FE
:100A2A00A0002630A0002730A0002830A0002930DE
:100A3A00A0002A30A0002B30A0002C30A0002D30BE
:100A4A00A0002E30A0002F30A0003030A00031309E
:100A5A00A0003230A0003330A0003430A00035307E
:100A6A00A0003630A0003730A0003830A00039305E
:100A7A00A0003A30A0003B30A0003C30A0003D303E
:100A8A00A0003E30A0003F30A0004030A00041301E
:100A9A00A0004230A0004330A0004430A0004530FE
:100AAA00A0004630A0004730A0004830A0004930DE
:100ABA00A0004A30A0004B30A0004C30A0004D30BE
:100ACA00A0004E30A0004F30A0005030A00051309E
:100ADA00A0005230A0005330A0005430A00055307E
:100AEA00A0005630A0005730A0005830A00059305E
:100AFA00A0005A30A0005B30A0005C30A0005D303E
:100B0A00A0005E30A0005F30A0006030A00061301D
:100B1A00A0006230A0006330A0006430F00008003A
:100B2A0083120313FB01FA01F9018030F800F10C7A
:100B3A00F00C031CA92D7408F90775080318750F22
:100B4A00FA070318FB0A0310F01FB12D7408FA07FD
:100B5A0075080318750FFB07FB0CFA0CF90CF80C57
:100B6A00031C9C2D7B08F3007A08F2007908F10037
:060B7A007808F0000800FD
:100B800083120313AA01AB01AC01C201C30180307F
:100B90004306F00080307002031DD02D0C3042025D
:100BA0000318DA2D42082D3E84008001C20A031981
:080BB000C30AC72DC1010800B2
:100BB80083120313CA01480884000008C9004908C1
:100BC800003A0319F12D4908CB000320CA0A4A0844
:0C0BD800480784000008C900E32D080055
:0E0BE4008312031329088A00280882000800E3
:100BF200831203131A08F100981C012E18121816FA
:060C02007108F00008007B
:100C080083120313480803178D00031349080317B9
:100C18008F0083168C170C140000000083120E0836
:0E0C2800F100F0010C08F0040030F1040800A7
:0E0C36000030831203138C1A0130F000080006
:100C440083120313F3017308033C031C5A2E0B088D
:100C5400F200480803178D000313490803178F0097
:100C64007308F000F00D701003134A08F0077008C1
:100C74008400000803178C00700A840000088E00AA
:100C840083168C170C158B1355308D00AA308D00EC
:100C94008C1400000000F21B512E8B13522E8B1764
:100CA4000C1183120313C80A0319C90AF30A252E67
:020CB400080036
:100CB600133083120313CB000320CB0103202C082F
:100CC600CB000320772EFF30CB000320872E44086D
:100CD600CB000320CB010320872ECB010320872ED8
:100CE6007F30CB000320872E4808FF3A0319662E73
:100CF6004808003A03196A2E4808013A0319702E6B
:100D060048087F3A0319732E3730CB0003200800BA
:100D160083120313A601A701C0251B267008031919
:100D2600E42EF9257008C7002608003A031DA02EF8
:100D36004708AA000130A600902E2608013A031D96
:100D4600A92E4708AB000230A600902E2608023ACC
:100D5600031DB22E4708AC000330A600902E2608CD
:100D6600033A031DDD2E2B08003A031DBD2E043069
:100D7600A600902E01302B02F100F201031CF203B3
:100D86008030F000803072067002031DCC2E710890
:100D960027020318D52E27082D3E84004708800019
:100DA600A70ADD2E27082D3E840047088000043060
:100DB600A600902E2608043A031DE42E4708C1001B
:060DC600E52E902E08004E
:100DCC008316031398169030831298008316871796
:100DDC00071383128C1EF52E1A08F000EF2E080054
:0C0DEC00213083120313C800DC2508002E
:100DF800F2258A110A128000840AA80A0319A90A8E
:080E0800F003031DFC2E08009D
:100E1000831203132A08133A0319112FFF30C80055
:100E20005B264108373A0319182FFF30C8005B26AC
:100E3000952F02302B020318212FFF30C8005B26AC
:100E4000A52F2D08C500C6012E08F000F101F00DF8
:100E5000F10D70107008C5057108C6054508C80079
:100E60004608C900042670080313C400C8015B26A5
:100E7000A52F4508C5064608C6062D08C500C601AB
:100E80004508F0004608F1000030F4000130F5009C
:100E900095257008C5007108C6002E08C5070318FF
:100EA000C60A4508C8004608C9002F30CA002226D5
:100EB0000130C8005B26A52F7230CB0003207F30A5
:100EC000FB00D430FC003130FD00FD0B652FFC0B26
:100ED000652FFB0B652F00000000B22A0D20A52F07
:100EE000C201C30101302B02F100F201031CF20325
:100EF00080304306F000803072067002031D822F9E
:100F0000710842020318942F4208503EF100420833
:100F10002D3E84000008F0007108840070088000F5
:100F2000C20A0319C30A722FA52F2C08003A03190D
:100F3000192F2C08013A0319392F2C08033A0319E9
:0C0F40005C2F2C08023A0319702F0800E7
:100F4C00343083120313A0002030A1002030A20003
:100F5C002030A3002030A400A501A601A7010D207C
:100F6C00F6268130831699001815E6268B2608275D
:040F7C00BC2FBF2F98
:02400E007A3BFB
:00000001FF
