:020000008C284A
:100006008316031398180928000003288312390859
:040016009900080045
:10001A0083120313B001B10180303106F000803041
:10002A007002031D1A283808300203182F283008D6
:10003A00370784000008B90003204130FC00EE3085
:10004A00FD00FD0B2628FC0B26280000B00A031928
:06005A00B10A11280800A4
:0E0060008312031333088A003208820008005E
:10006E0030208A110A128000840AB20A0319B30AD8
:08007E00F003031D3728080000
:10008600133083120313B90003205F283608B90022
:1000960003200130B90003203508B7003608B80040
:1000A6000D2067280130B90003200330B900032072
:1000B6000230B900032067283408013A0319492899
:1000C6003408033A031955283730B90003200800CD
:1000D600033083120313FB008A30FC005530FD0009
:1000E600FD0B7328FC0B7328FB0B73280000000024
:0200F600080000
:1000F8008316031398169030831298008316871777
:10010800071383128C1E8B281A08F0008528080014
:1001180083120313A0010D30A1002130A20030305A
:10012800A3008330A4001230A5000330A6001330CA
:10013800A700BF30A800A901AA011130AB005830B0
:10014800AC002030AD000830AE00AF01B001B10105
:1001580081308316990018157C200130B4002030B6
:10016800B5000A30B60043206B200130B4002A30B5
:10017800B5000630B60043201A30FB005E30FC00A4
:100188006E30FD00FD0BC628FC0BC628FB0BC628ED
:0E01980000000330B400B501B6014320D228A8
:02400E007A3BFB
:00000001FF
