:020000000029D5
:0E000600831203132C088A002B0882000800C6
:1000140083120313FB01FA01F9018030F800F10C9B
:10002400F00C031C1E287408F90775080318750FD3
:10003400FA070318FB0A0310F01F26287408FA07AE
:1000440075080318750FFB07FB0CFA0CF90CF80C78
:10005400031C11287B08F3007A08F2007908F100E8
:060064007808F00008001E
:10006A0083120313F801F9011030FC00710DF80D29
:10007A00F90D7408F8027508031C750FF9020318C4
:10008A004D287408F80775080318750FF907031047
:0A009A00F00DF10DFC0B3B280800EF
:1000A40003208A110A128000840AAB0A0319AC0ADD
:0800B400F003031D52280800AF
:1000BC00CE3083120313F0000330F1002708F40054
:1000CC002808F5000A20FF30F0070F300318013E16
:1000DC00F1071830F400D130F50035207808F00025
:1000EC007908F1007008A7007108A800FF302705F7
:0400FC00F000080008
:10010000831603139816903083129800831687176E
:10011000071383128C1E8F281A08F0008928080004
:1001200083160313981896280000902883122D0830
:04013000990008002A
:100134003A3083120313F0000E30F1002908F40062
:100144002A08F5000A201730F00704300318013E8E
:10015400F1070F30F4006C30F50035207808F0001A
:100164007908F1007008A9007108AA00FF30290578
:04017400F00008008F
:100178009C3083120313F0000830F1002508F400C6
:100188002608F5000A209430F00708300318013ECD
:10019800F1074230F400B230F50035207808F0005D
:1001A8007908F1007008A5007108A600FF30250540
:0401B800F00008004B
:1001BC00AA3083120313F0001030F1002308F4006E
:1001CC002408F5000A20C530F00708300318013E5A
:1001DC00F1079930F400DA30F50035207808F0009A
:1001EC007908F1007008A3007108A400FF30230502
:0401FC00F000080007
:1002000083120313A001A101A2019A30A3000430BC
:10021000A4002F30A5000230A6009A30A7000330BA
:10022000A8001130A9000F30AA0081308316990070
:1002300018158020A00AA101A20180302206F0003A
:1002400080307002031D26296430210203183029F2
:100250005E20BC209A20DE20A10A0319A20A1D29D3
:100260005E207008AD009020BC207008AD0090208A
:100270009A207008AD009020DE207008AD0090201C
:100280009A207008AD009020BC207008AD0090202E
:100290005E207008AD0090205E207008AD009020B8
:1002A000BC207008AD0090209A207008AD0090200E
:1002B000DE207008AD009020DE207008AD00902098
:1002C0009A207008AD009020BC207008AD009020EE
:1002D0005E207008AD009020BC207008AD0090201A
:0202E000702983
:02400E007A3BFB
:00000001FF
