:02000000B22A22
:10001C00710DF80DF90D7408F8027508031C750FB5
:10002C00F902F00DF10D0F30FC00710DF80DF90D0A
:10003C007408701C2728F8027508031C750FF90248
:10004C002C28F80775080318750FF907F00DF10D3A
:10005C00FC0B1B28701838287408F807750803184F
:08006C00750FF9070000080000
:10007400831203137408003A031D49287508003AD3
:10008400031D4928FF30F0007F30F100A2288312BD
:100094000313FD01F901F801710870040319003418
:1000A40071087506FA00FA1BFD09FB01F51F5F28AC
:1000B400F409F509F40A0319F50AF11F6628F00991
:1000C400F109F00A0319F10A71087504FA00FA1B20
:1000D4007B280E207B188E28FD1F0034F009F109BF
:1000E400F00A0319F10AF809F909F80A0319F90AD7
:1000F4000034F51F8A28F11B86287108F90070085E
:10010400F800F101F0016E28F101F001F00A003469
:10011400F109F009FB0A6B28F80A0319F90A7408B3
:100124007802031D6E2875087902031D6E28F901F3
:10013400F801F00A0319F10AF11F6E280000FF34D8
:020144000800B1
:1001460083120313F801F9011030FC00710DF80D4C
:10015600F90D7408F8027508031C750FF9020318E7
:10016600BB287408F80775080318750FF9070310FC
:0A017600F00DF10DFC0BA9280800A4
:10018000831203136D08A03E84000008D2006D089E
:10019000A03EF1006E08A03E84000008F000710847
:1001A0008400700880006E08A03E84005208800021
:0201B000080045
:1001B20083120313D701D801D501D601D301D4018B
:1001C20080305406F00080307002031DEA2814309B
:1001D200530203184C295708013EF000003003185F
:1001E200013E5807F1004030F4000030F500A32032
:1001F2007808F0007908F1007008D7007108D8007B
:100202005708A03E840000085507F000560803185E
:10021200013EF1004030F4000030F500A3207808E0
:10022200F0007908F1007008D5007108D60057086F
:10023200ED005508EE00C0205708A03E84000008DB
:10024200F0005508A03E84000008F007F1010318F1
:10025200F10A4030F4000030F5003A207808F0004E
:100262007908F1007008A03E84000008D000D10196
:100272000030D1005308203EF1005308203E840094
:1002820000085006F0007108840070088000D30A4C
:0C0292000319D40AE128F001F101080072
:10029E0083120313D501D601D701D80100305802BD
:1002AE00031D5B2940305702031866295708A03EEC
:1002BE00840057088000D70A0319D80A5529D70198
:1002CE00D80100305802031D6E2940305702031822
:1002DE00A7295708A03E840000085507EB005608D2
:1002EE000318013EEC001130F4000030F500570801
:1002FE00F0005808F100A3207808F0007908F1000A
:10030E007008383E840000086B07F0006C08031874
:10031E00013EF1004030F4000030F500A3207808D3
:10032E00F0007908F1007008D5007108D600570862
:10033E00ED005508EE00C020D70A0319D80A682927
:06034E00F001F1010800BE
:1003540083120313FB01FA01F9018030F800F10C58
:10036400F00C031CBE297408F90775080318750FEF
:10037400FA070318FB0A0310F01FC6297408FA07CA
:1003840075080318750FFB07FB0CFA0CF90CF80C35
:10039400031CB1297B08F3007A08F2007908F10004
:0603A4007808F0000800DB
:0E03AA008312031368088A00670882000800A7
:1003B8009C3083120313F0000830F1003408F40075
:1003C8003508F500AA219430F00708300318013EDB
:1003D800F1074230F400B230F500A3207808F000AD
:1003E8007908F1007008B4007108B500FF303405D1
:0403F800F000080009
:1003FC00413083120313FC00EE30FD00FD0B042A88
:08040C00FC0B042A00000800AB
:100414003A3083120313F0000E30F1003608F40072
:100424003708F500AA211730F00704300318013EFD
:10043400F1070F30F4006C30F500A3207808F000C9
:100444007908F1007008B6007108B700FF3036056E
:04045400F0000800AC
:10045800CE3083120313F0000330F1004C08F4008F
:100468004D08F500AA21FF30F0070F300318013EB0
:10047800F1071830F400D130F500A3207808F00017
:100488007908F1007008CC007108CD00FF304C05E8
:04049800F000080068
:10049C0083120313690803178D0003136A080317EB
:1004AC008F0083168C170C140000000083120E08AA
:0E04BC00F100F0010C08F0040030F10408001B
:1004CA00AA3083120313F0001030F1004E08F40032
:1004DA004F08F500AA21C530F00708300318013E7D
:1004EA00F1079930F400DA30F500A3207808F0001B
:1004FA007908F1007008CE007108CF00FF304E0570
:04050A00F0000800F5
:0A050E004F21D920F001F10108008F
:10051800D5218A110A128000840AE70A0319E80A19
:08052800F003031D8C2A0800FA
:10053000831603139816903083129800831687173A
:10054000071383128C1EA72A1A08F000A12A08009C
:10055000831603139818AE2A0000A82A831269088C
:0405600099000800F6
:10056400DC240E3083120313D7000030D80081300E
:10057400831699001815982200304B06031DF52B9D
:10058400D501D60100305602031DCA2A0430550293
:100594000318082BE901EA014E2270080313E50051
:1005A4007108E6005508F0005608F1000230F40026
:1005B4000030F500AA210230F0070318F10A700890
:1005C4005B3E8400FF306505F0007008800055082C
:1005D400F0005608F1000230F4000030F500AA21C2
:1005E4000230F0070318F10AF00A0319F10A70083F
:1005F4005B3E84006608F0000030E61BFF30F1002B
:1006040070088000D50A0319D60AC42A1330E900F9
:10061400A822FE210A30E900A822FE210130E900C7
:10062400A822FE21E901A822FE210D30E900A8221A
:10063400FE21D901DA0180305A06F00080307002C0
:10064400031D262B0830590203183A2B0230590790
:10065400F0005A080318013EF10070085B3E840064
:100664000008E900A822FE21D90A0319DA0A1D2B81
:100674003730E900A8220330FB008A30FC005530F3
:10068400FD00FD0B432BFC0B432BFB0B432B00000A
:10069400000004305802031D512BE73057020318A1
:1006A400E12BD501D60100305602031D5B2B04302B
:1006B400550203189F2B55085707E90058080318DB
:1006C400013E5607EA004E2270080313E500710844
:1006D400E6005508F0005608F1000230F40000303E
:1006E400F500AA210230F0070318F10A70085B3EF6
:1006F4008400FF306505F000700880005508F000A4
:100704005608F1000230F4000030F500AA2102304E
:10071400F0070318F10AF00A0319F10A70085B3EA6
:1007240084006608F0000030E61BFF30F10070081A
:100734008000D50A0319D60A552B5808F000F10198
:100744007008DB00FF305705DC001330E900A822F5
:10075400FE210A30E900A822FE210130E900A82286
:10076400FE21D901DA0180305A06F000803070028F
:10077400031DBE2B0A3059020318CB2B59085B3ECC
:1007840084000008E900A822FE21D90A0319DA0A24
:10079400B52B3730E900A8220330FB008A30FC0077
:1007A4005530FD00FD0BD42BFC0BD42BFB0BD42BB1
:1007B400000000000430D7070318D80A4B2B13306D
:1007C400E900A822FE210130E900A822FE2103301D
:1007D400E900A822FE210130E900A822FE213730D9
:1007E400E900A822FE21CA013808433A031DA02CBF
:1007F400CA0AD901DA0180305A06F000803070024A
:10080400031D062C643059020318102C2C22DC2101
:100814000A226522D90A0319DA0AFD2B2C22700850
:100824003906F1007108773A031D192CCA0ADC2134
:1008340070083A06F1007108653A031D222CCA0AB1
:100844000A2270083B06F1007108833A031D2B2C21
:10085400CA0A652270083C06F10071083A3A031D81
:10086400342CCA0A0A2270083D06F1007108D43AF1
:10087400031D3D2CCA0ADC2170083E06F1007108F4
:100884006A3A031D462CCA0A2C2270083F06F1005E
:100894007108673A031D4F2CCA0A2C2270084006BF
:1008A400F1007108603A031D582CCA0ADC21700853
:1008B4004106F1007108AE3A031D612CCA0A0A22EE
:1008C40070084206F10071082B3A031D6A2CCA0A0B
:1008D400652270084306F1007108263A031D732C43
:1008E400CA0A652270084406F1007108353A031DEE
:1008F4007C2CCA0A0A2270084506F10071086A3A7B
:10090400031D852CCA0ADC2170084606F100710813
:10091400AE3A031D8E2CCA0A2C2270084706F10039
:100924007108693A031D972CCA0ADC21700848062D
:10093400F1007108813A031DA02CCA0A4A08113A31
:08094400031DA52C8722A52C40
:1009B80020308400303083120313F000AB30E7009E
:0809C8000430E8008C22080055
:1009560076344534663462346F3419345D34473442
:100966003A3462347A3466340334683454346F3437
:0809760023347E3401345D34AA
:04097E002F340234DC
:0409820011340F34E9
:100986004334723461347A34793455346E34623493
:1009960065346C34693465347634613462346C346D
:0409A6006534003480
:0209AA00003417
:0209AC00003415
:0409AE009A34033440
:0409B2009A3404343B
:02400E007A3BFB
:00000001FF
