:02000000082BCB
:1000060083120313FB01FA01F901F801A001730D34
:10001600F80D7408F8027508031C750FF9027608C6
:10002600031C760FFA027708031C770FFB02000108
:10003600031C0130A002F30D0730FC00730DF80D10
:10004600F90DFA0DFB0DA00D7408731C3C28F8027F
:100056007508031C750FF9027608031C760FFA0261
:100066007708031C770FFB020001031C0130A00276
:100076004D28F80775080318750FF9077608031851
:10008600760FFA0777080318770FFB0700010318A6
:100096000130A007F30DFC0B2128720DF80DF90DA8
:1000A600FA0DFB0DA00D7408731C6B28F802750879
:1000B600031C750FF9027608031C760FFA027708FF
:1000C600031C770FFB020001031C0130A0027C28F1
:1000D600F80775080318750FF90776080318760FE1
:1000E600FA0777080318770FFB070001031801309A
:1000F600A007F20D0730FC00720DF80DF90DFA0D90
:10010600FB0DA00D7408721C9A28F8027508031CD2
:10011600750FF9027608031C760FFA027708031C9E
:10012600770FFB020001031C0130A002AB28F80781
:1001360075080318750FF90776080318760FFA077E
:1001460077080318770FFB07000103180130A00793
:10015600F20DFC0B7F28710DF80DF90DFA0DFB0D54
:10016600A00D7408721CC928F8027508031C750FC7
:10017600F9027608031C760FFA027708031C770F3C
:10018600FB020001031C0130A002DA28F8077508FB
:100196000318750FF90776080318760FFA0777081C
:1001A6000318770FFB07000103180130A007F10DB4
:1001B6000730FC00710DF80DF90DFA0DFB0DA00DC1
:1001C6007408711CF828F8027508031C750FF902EB
:1001D6007608031C760FFA027708031C770FFB02DA
:1001E6000001031C0130A0020929F807750803184D
:1001F600750FF90776080318760FFA0777080318BC
:10020600770FFB07000103180130A007F10DFC0B67
:10021600DD28700DF80DF90DFA0DFB0DA00D740813
:10022600711C2729F8027508031C750FF902760858
:10023600031C760FFA027708031C770FFB020001F6
:10024600031C0130A0023829F80775080318750F3A
:10025600F90776080318760FFA0777080318770F59
:10026600FB07000103180130A007F00D0730FC0062
:10027600700DF80DF90DFA0DFB0DA00D7408701C2C
:100286005629F8027508031C750FF9027608031C37
:10029600760FFA027708031C770FFB020001031C96
:1002A6000130A0026729F80775080318750FF907CA
:1002B60076080318760FFA0777080318770FFB07F7
:1002C600000103180130A007F00DFC0B3B29701844
:1002D6007A297408F80775080318750FF907760860
:1002E6000318760FFA0777080318770FFB0708003D
:1002F600710DF80DF90D7408F8027508031C750FD9
:10030600F902F00DF10D0F30FC00710DF80DF90D2D
:100316007408701C9429F8027508031C750FF902FD
:100326009929F80775080318750FF907F00DF10DEF
:10033600FC0B88297018A5297408F8077508031896
:08034600750FF9070000080023
:10034E0083120313F801F9011030FC00710DF80D42
:10035E00F90D7408F8027508031C750FF9020318DD
:10036E00BF297408F80775080318750FF9070310ED
:0A037E00F00DF10DFC0BAD29080095
:10038800831203132230FC00F801F901FA01FB0182
:10039800FC030319FA290310FB0CFA0CF90CF80CEE
:1003A800F30CF20CF10CF00C031CCC29FC03031920
:1003B800EC297408F80775080318750FF90776080B
:1003C8000318760FFA0777080318770FFB07D02969
:1003D8007408F80775080318750FF90776080318E5
:0E03E800760FFA0777080318770FFB07080057
:0E03F6008312031369088A0068088200080059
:10040400831603139818082A0000022A3708831257
:040414009900080043
:0E0418000030831203138C1A0130F00008002C
:100426008316031398169030831298008316871745
:10043600071383128C1E222A1A08F0001C2A0800B1
:10044600FB218A110A128000840AE80A0319E90AC4
:08045600F003031D232A080036
:10045E008316031334088312A10083163508831202
:08046E00A200A301A401080093
:10047600831203137408003A031D4A2A7508003ACA
:10048600031D4A2AFF30F0007F30F100A32A8312B1
:100496000313FD01F901F801710870040319003412
:1004A60071087506FA00FA1BFD09FB01F51F602AA3
:1004B600F409F509F40A0319F50AF11F672AF00988
:1004C600F109F00A0319F10A71087504FA00FA1B1A
:1004D6007C2A7B217B188F2AFD1F0034F009F10945
:1004E600F00A0319F10AF809F909F80A0319F90AD1
:1004F6000034F51F8B2AF11B872A7108F900700852
:10050600F800F101F0016F2AF101F001F00A003460
:10051600F109F009FB0A6C2AF80A0319F90A7408AA
:100526007802031D6F2A75087902031D6F2AF901E7
:10053600F801F00A0319F10AF11F6F2A0000FF34CF
:020546000800AB
:10054800831203131A08F100981CAC2A1812181603
:060558007108F00008002C
:10055E00831203132108F0002208F1002308F20091
:10056E002408F3006D30F4004E30F500C630F6006E
:10057E004130F700C4213930A1003030A200A30170
:10058E00A4017008A10771080318710FA207720861
:10059E000318720FA30773080318730FA407003014
:1005AE00F4000030F5000130F6000030F7002108AD
:1005BE00F0002208F1002308F2002408F3000320C3
:1005CE000030F4008030F500A7217808F00079089B
:0405DE00F100080020
:1005E20083160313B601340884000008B5003508E9
:1005F200003A0319072B3508B70002228316B60A00
:0E0602003608340784000008B500F82A080006
:10061000CE25813083160313990018151322253037
:100620008316B400F1223730B4001330B5002F2206
:1006300083120E303A060319392D0C227008031963
:10064000362DA4227008EC006C088316B700022235
:100650003A08003A031D4D2B3A085A3E8400000820
:10066000EF00AF22FF30F400F5013B227808F000E4
:100670007908F10070086C06F20000307106F30092
:1006800000307306031D462B72086F06031D4B2BAB
:100690000130BA004C2BBA01182B3A08013A031D5D
:1006A000722B3A085A3E84000008EF00AF22FF3058
:1006B000F400F5013B227808F0007908F100700899
:1006C0006C06F20000307106F30000307306031D63
:1006D0006B2B72086F06031D702B0230BA00712B52
:1006E000BA01182B3A08023A031D972B3A085A3ED2
:1006F00084000008EF00AF22FF30F400F5013B2238
:100700007808F0007908F10070086C06F2000030FB
:100710007106F30000307306031D902B72086F06FC
:10072000031D952B0330BA00962BBA01182B3A08FB
:10073000033A031DBC2B3A085A3E84000008EF0020
:10074000AF22FF30F400F5013B227808F000790871
:10075000F10070086C06F20000307106F300003002
:100760007306031DB52B72086F06031DBA2B0430E8
:10077000BA00BB2BBA01182B3A08043A031DE12B2F
:100780003A085A3E84000008EF00AF22FF30F40020
:10079000F5013B227808F0007908F10070086C063A
:1007A000F20000307106F30000307306031DDA2BEF
:1007B00072086F06031DDF2B0530BA00E02BBA016B
:1007C000182B3A08053A031D062C3A085A3E8400B5
:1007D0000008EF00AF22FF30F400F5013B2278085B
:1007E000F0007908F10070086C06F2000030710624
:1007F000F30000307306031DFF2B72086F06031D04
:10080000042C0630BA00052CBA01182B3A08063A17
:10081000031D2B2C3A085A3E84000008EF00AF223B
:10082000FF30F400F5013B227808F0007908F10070
:1008300070086C06F20000307106F3000030730699
:10084000031D242C72086F06031D292C0730BA00E3
:100850002A2CBA01182B3A08073A031D502C3A08E3
:100860005A3E84000008EF00AF22FF30F400F5018B
:100870003B227808F0007908F10070086C06F2005D
:1008800000307106F30000307306031D492C720816
:100890006F06031D4E2C0830BA004F2CBA01182BDE
:1008A0003A08083A031D752C3A085A3E840000089D
:1008B000EF00AF22FF30F400F5013B227808F00092
:1008C0007908F10070086C06F20000307106F30040
:1008D00000307306031D6E2C72086F06031D732C07
:1008E0000930BA00742CBA01182B3A08093A031DD2
:1008F0009A2C3A085A3E84000008EF00AF22FF30DD
:10090000F400F5013B227808F0007908F100700846
:100910006C06F20000307106F30000307306031D10
:10092000932C72086F06031D982C0A30BA00992C7C
:10093000BA01182B3A080A3A031DBF2C3A085A3E4E
:1009400084000008EF00AF22FF30F400F5013B22E5
:100950007808F0007908F10070086C06F2000030A9
:100960007106F30000307306031DB82C72086F0681
:10097000031DBD2C0B30BA00BE2CBA01182B3A084F
:100980000B3A031DE42C3A085A3E84000008EF009D
:10099000AF22FF30F400F5013B227808F00079081F
:1009A000F10070086C06F20000307106F3000030B0
:1009B0007306031DDD2C72086F06031DE22C0C303C
:1009C000BA00E32CBA01182B3A080C3A031D092D82
:1009D0003A085A3E84000008EF00AF22FF30F400CE
:1009E000F5013B227808F0007908F10070086C06E8
:1009F000F20000307106F30000307306031D022D73
:100A000072086F06031D072D0D30BA00082DBA01BC
:100A1000182B3A080D3A031D362D3A085A3E840029
:100A20000008EF00AF22FF30F400F5013B22780808
:100A3000F0007908F10070086C06F20000307106D1
:100A4000F30000307306031D272D72086F06031D87
:100A50002C2D0E30BA002D2DBA012430ED00673058
:100A6000EE004F308316B400F122182B8312EC01F4
:100A7000182B6D088316B40083126E088316B50018
:100A80002F22EA01EB0180306B06F000803070020B
:100A9000031D4C2D14306A020318622D6A08A03E13
:100AA000EF00AF22FF30F400F5013B227808F000A0
:100AB0007908F1006F08840070088000EA0A0319C1
:100AC000EB0A432DEA01EB0180306B06F000803029
:100AD0007002031D6D2D14306A020318802D6A0800
:100AE000A03E84000008F0006A083B3E8400000835
:100AF00070068316B7000222EA0A0319EB0A642D76
:020B0000802D46
:100B9C0021308400473083120313F0008630E800C4
:080BAC000530E90023220800D6
:080B0C00013400340034003410
:100B140045346E347434653472342034763461343C
:100B24006C34693464342034703461347334733411
:0A0B340077346F34723464340034F7
:020B3E00003481
:100B40003B34BD34BC3495340634E134DB343634C4
:100B5000C9343A34A9343B34613444349934503480
:080B6000C434DE348534843412
:100B68000A3443346F347234723465346334743401
:060B78002E340A340034A3
:100B7E00AC3410345A34C334BF3476343134E9349F
:0C0B8E0034347F340F344F344A34FA34CE
:02400E007A3BFB
:00000001FF
