:02000000A12C31
:100006007408F8027508031C750FF9027608031CBC
:10001600760FFA027708031C770FFB02F30D073001
:10002600FC00730DF80DF90DFA0DFB0D7408731C29
:100036002A28F8027508031C750FF9027608031CB6
:10004600760FFA027708031C770FFB023728F807AA
:1000560075080318750FF90776080318760FFA075F
:1000660077080318770FFB07F30DFC0B1428720DA6
:10007600F80DF90DFA0DFB0D7408731C5028F802E3
:100086007508031C750FF9027608031C760FFA0231
:100096007708031C770FFB025D28F807750803181D
:1000A600750FF90776080318760FFA07770803180D
:1000B600770FFB07F20D0730FC00720DF80DF90DF6
:1000C600FA0DFB0D7408721C7628F8027508031CDD
:1000D600750FF9027608031C760FFA027708031CDF
:1000E600770FFB028328F80775080318750FF907C1
:1000F60076080318760FFA0777080318770FFB07B9
:10010600F20DFC0B6028710DF80DF90DFA0DFB0DC3
:100116007408721C9C28F8027508031C750FF902F6
:100126007608031C760FFA027708031C770FFB028A
:10013600A928F80775080318750FF9077608031834
:10014600760FFA0777080318770FFB07F10D0730CC
:10015600FC00710DF80DF90DFA0DFB0D7408711CFC
:10016600C228F8027508031C750FF9027608031CED
:10017600760FFA027708031C770FFB02CF28F807E1
:1001860075080318750FF90776080318760FFA072E
:1001960077080318770FFB07F10DFC0BAC28700DE1
:1001A600F80DF90DFA0DFB0D7408711CE828F8021C
:1001B6007508031C750FF9027608031C760FFA0200
:1001C6007708031C770FFB02F528F8077508031854
:1001D600750FF90776080318760FFA0777080318DC
:1001E600770FFB07F00D0730FC00700DF80DF90DC9
:1001F600FA0DFB0D7408701C0E29F8027508031C15
:10020600750FF9027608031C760FFA027708031CAD
:10021600770FFB021B29F80775080318750FF907F6
:1002260076080318760FFA0777080318770FFB0787
:10023600F00DFC0BF82870182E297408F8077508BD
:100246000318750FF90776080318760FFA0777086B
:080256000318770FFB070800F5
:10025E00FB09FA09F909F809F80A0319F90A031949
:08026E00FA0A0319FB0A08005B
:10027600203083120313F0004E30F100F201F30137
:0202860008006E
:10028800831203179E039E031E08003C031851297E
:100298009E03000000000000482900000000000044
:0602A80000000000080048
:0E02AE00831203136C088A006B08820008009C
:1002BC00831203132230FC00F801F901FA01FB014F
:1002CC00FC03031994290310FB0CFA0CF90CF80C21
:1002DC00F30CF20CF10CF00C031C6629FC03031953
:1002EC0086297408F80775080318750FF90776083E
:1002FC000318760FFA0777080318770FFB076A299C
:10030C007408F80775080318750FF90776080318B1
:0E031C00760FFA0777080318770FFB07080023
:10032A00831203137408003A031DB0297508003AB2
:10033A00031DB0297608003A031DB0297708003A50
:10034A00031DB029FF30F000FF30F100FF30F2004A
:10035A007F30F300492A83120313FC01F71BFC0ABE
:10036A00FD01FB01FA01F901F80173087204710435
:10037A0070040319442A73087706A000A01BFD091C
:10038A00F71FD229F409F509F609F709F40A03193E
:10039A00F50A0319F60A0319F70AF31FDF29F00908
:1003AA00F109F209F309F00A0319F10A0319F20A29
:1003BA000319F30A73087704A000A01B002A03207C
:1003CA00FC1B1D2AFD1F442AF009F109F209F30951
:1003DA00F00A0319F10A0319F20A0319F30AF809D0
:1003EA00F909FA09FB09F80A0319F90A0319FA0AB9
:1003FA000319FB0A442AF71F172AF31B112A730849
:10040A00FB007208FA007108F9007008F800F3019D
:10041A00F201F101F001E729F301F201F101F00122
:10042A00F00A0034F309F209F109F009FC17E4298A
:10043A00F80A0319F90A0319FA0A0319FB0A7408D4
:10044A007802031DE72975087902031DE729760852
:10045A007A02031DE72977087B02031DE729FB01BE
:10046A00FA01F901F801F00A0319F10A0319F20A6B
:10047A000319F30AF31FE729A0012016FF34A0018C
:0A048A007C1C482A2F21003E0800C8
:10049400413083120313FC00EE30FD00FD0B502AA3
:0804A400FC0B502A00000800C7
:1004AC00831603136808840080010130EA00E90117
:1004BC0083126E1083166408840083126F08003A4E
:1004CC00031D7D2A831663080005F1007108003AAC
:1004DC0003197C2A83126E1C7B2A831668088400FD
:1004EC00FF3080006908F000E32A682A912A8316FD
:1004FC0063080005F1007108003A031D912A83126C
:10050C006E1C902A831668088400FF3080006908EE
:10051C00F000E32A7D2A83166108831203179E00DC
:10052C004421831603136208831203179E0044218F
:10053C00831603136A080319B92A63080005F1002E
:10054C007108003A0319AC2A6A08E904EA0D6A102A
:10055C0002306202831203179E0044210000000047
:10056C00000000009E2A831203136F08003A031D3B
:10057C00CE2A831663080005F1007108003A013099
:10058C00031D0030F0006808840070088000DC2A2D
:10059C00831663080005F1007108003A0130031955
:1005AC000030F000680884007008800083126F0827
:0C05BC0083166906F0007008E9000800D2
:1005C800013083160313E90083126F088316E806C7
:1005D8006408840083126F08003A0319F72A831607
:1005E80065088004FA2A8316600880056208831269
:1005F80003179E00442183160313E8098316031387
:10060800690803191E2B69086805F000031D0F2BE4
:1006180065088004112B60088005E90D6910023017
:100628006202831203179E004421000000000000AC
:100638000000022B831203136F08003A0319282BBA
:100648008316600880052B2B8316650880046208D2
:0A065800831203179E0044210800DE
:1006620083120313C201C301FF304205F000700878
:100672008316E8066808F000F00D7010F00D701097
:10068200F00D7010F00D70107008E8066808F100A7
:10069200F2017108F400F30183124308F000F10142
:1006A200FF30F0050030F10570087304C2007408D1
:1006B2007104C30083166808F000F00CF013F00C0C
:1006C200F013F00CF013F00CF01370088312C20652
:1006D2000030C30683166808F300F4017308F000C3
:1006E2007408F100F00DF10D7010F00DF10D7010A5
:1006F200F00DF10D701070088312C2067108C30666
:020702000800ED
:10070400831203137008F100F0010830FC00710833
:10071400F40C0318912BFC0B8A2BF1010034031009
:10072400962BF40C0318F107F10CF00CFC0B932B33
:020734000800BB
:10073600831603136808E4006908F0000130F2002C
:1007460070080319AA2BF20D7210FF3EA42B720833
:10075600E3007209E6006A08F1000130F000710852
:100766000319B92BF00D7010FF3EB32B7008E5008E
:10077600F0097008E0008030680784007208800481
:10078600700880058312EF0183166F080319CD2BBD
:100796008312EF09831284136F08003A0319D72BCB
:1007A600831660088005DA2B8316650880043B21D2
:1007B600E830F4000330F500F601F7015E21700819
:1007C60003179A0071089B0072089C0073089D002D
:1007D6001A0890001B0891001C0892001D0893003F
:1007E600831603136B08F0006C08F1006D08F20025
:1007F6006E08F300F00DF10DF20DF30D7010F00D13
:10080600F10DF20DF30D70100A30F400F501F6014A
:10081600F7015E21700803179400710895007208AD
:100826009600730897007008F4007108F5007208C6
:10083600F6007308F7001A08F0001B08F1001C0800
:10084600F2001D08F300952170080317980071083F
:1008560099007108F400F501740875040319362C23
:100866000230F000942C180883160313E20083125A
:1008760003171408F4001508F5001608F600170803
:10088600F7001008F0001108F1001208F200130832
:10089600F30095217808F0007908F1007A08F20053
:1008A6007B08F30070080317900071089100720826
:1008B6009200730893001408F5001508F600160850
:1008C600F7001708F800F80CF70CF60CF50CF813FF
:1008D600781BF81780307806F400803073067402AF
:1008E600031D7F2C72087702031D7F2C7108760288
:1008F600031D7F2C700875020318842C83160313BE
:10090600E20A831603136208F100F10CF113710871
:10091600E100073071020318932C0130F000942C8B
:04092600F0010800D4
:10092A0057218A110A128000840AEB0A0319EC0A79
:08093A00F003031D952C0800D9
:10094200A025063083160313E8000130E9000230C7
:10095200EA008030EB002530EC00ED01EE01EF0102
:100962009B23831203137008ED00EA0180306A06AC
:10097200F0008030263A70020318D82C6A08443EF0
:100982008316E7006D30E80056226708840070087D
:10099200800083126A08443E840000088316E8003F
:1009A200E42203136D08031DBF2CEA0AB72CEA01E7
:1009B20080306A06F0008030203A70020318142D4D
:1009C20005306A07F0000030EA1BFF30F10003181F
:1009D200F10A7008443E840000088316E8003123BF
:1009E2000230F0006A08F40082237008A03E8400FE
:1009F2000008F000840A0008F1006A08213E840021
:100A020000087006F2007108F3000030F306430894
:100A12007306031D0E2D72084206031D112D122DA1
:100A2200362DEA0AD92C52308316E800E4224A22F3
:100A320065308316E800E4224A2273308316E80008
:100A4200E4224A2270308316E800E4224A2265300A
:100A52008316E800E4224A2263308316E800E42287
:0C0A62004A2274308316E800E422362D8E
:100B400021308400213083120313F0007C30EB004D
:100B50000530EC009524A030840040308312F00072
:100B60003C30EB000530EC0095244230840002302C
:100B70008312F0009D30EB000530EC009524080056
:100A7800293403347D34033433342034FF3451347F
:100A8800D3345434AE34BD34FB34BD342C34033445
:100A9800463425344134253485345434B334313420
:100AA8006E342034B6343134FA34BD34D634543448
:100AB80094347734263440345D344534C83434347F
:100AC800EE347234413425343C3420342B3403342E
:100AD800B434313423344034CF3434340D344534D1
:100AE80005344534FC34513417342534163466340F
:100AF80031346534393462346634653430343434EE
:100B080064346334303430346434353431346334E9
:100B180033343234613463346134633436343334D7
:100B28003734373464343134393461343534383413
:020B3800003487
:040B3A00003400344F
:02400E007A3BFB
:00000001FF
